{
  "transactions": [
    {
      "hash": "0x08a49927a417dd19f7eaf79446b688caf82b59752b28fa58296d4612a305ad2e",
      "transactionType": "CALL",
      "contractName": null,
      "contractAddress": "0x61b7a5e9fd01381390553034cb4090853ed7d504",
      "function": "setNumber(uint256)",
      "arguments": [
        "1"
      ],
      "transaction": {
        "from": "0x019b00a04e4b38439a7f42964681a7916c3e6364",
        "to": "0x61b7a5e9fd01381390553034cb4090853ed7d504",
        "gas": "0xeaab",
        "value": "0x0",
        "input": "0x3fb5c1cb0000000000000000000000000000000000000000000000000000000000000001",
        "nonce": "0x4",
        "chainId": "0x150"
      },
      "additionalContracts": [],
      "isFixedGasLimit": false
    },
    {
      "hash": "0xd716b2620b425e817e1f5bcabbce21f3f7c0cf84fa4c378c128d7a54a04c9b94",
      "transactionType": "CALL",
      "contractName": null,
      "contractAddress": "0x61b7a5e9fd01381390553034cb4090853ed7d504",
      "function": "increment()",
      "arguments": [],
      "transaction": {
        "from": "0x019b00a04e4b38439a7f42964681a7916c3e6364",
        "to": "0x61b7a5e9fd01381390553034cb4090853ed7d504",
        "gas": "0x8dec",
        "value": "0x0",
        "input": "0xd09de08a",
        "nonce": "0x5",
        "chainId": "0x150"
      },
      "additionalContracts": [],
      "isFixedGasLimit": false
    }
  ],
  "receipts": [
    {
      "status": "0x1",
      "cumulativeGasUsed": "0xfd",
      "logs": [],
      "logsBloom": "0x00000000000000000000000000000000000000000000000000000000000000000000000000000000000000000000000000000000000000000000000000000000000000000000000000000000000000000000000000000000000000000000000000000000000000000000000000000000000000000000000000000000000000000000000000000000000000000000000000000000000000000000000000000000000000000000000000000000000000000000000000000000000000000000000000000000000000000000000000000000000000000000000000000000000000000000000000000000000000000000000000000000000000000000000000000000",
      "type": "0x2",
      "transactionHash": "0x08a49927a417dd19f7eaf79446b688caf82b59752b28fa58296d4612a305ad2e",
      "transactionIndex": "0x0",
      "blockHash": "0xdbf649feb314570d9bea220c1c1bf558b229cd9e9ac96480c56169252f1c74b9",
      "blockNumber": "0x752b30",
      "gasUsed": "0xfd",
      "effectiveGasPrice": "0x2ba7def3000",
      "from": "0x019b00a04e4b38439a7f42964681a7916c3e6364",
      "to": "0x61b7a5e9fd01381390553034cb4090853ed7d504",
      "contractAddress": null
    },
    {
      "status": "0x1",
      "cumulativeGasUsed": "0x61",
      "logs": [],
      "logsBloom": "0x00000000000000000000000000000000000000000000000000000000000000000000000000000000000000000000000000000000000000000000000000000000000000000000000000000000000000000000000000000000000000000000000000000000000000000000000000000000000000000000000000000000000000000000000000000000000000000000000000000000000000000000000000000000000000000000000000000000000000000000000000000000000000000000000000000000000000000000000000000000000000000000000000000000000000000000000000000000000000000000000000000000000000000000000000000000",
      "type": "0x2",
      "transactionHash": "0xd716b2620b425e817e1f5bcabbce21f3f7c0cf84fa4c378c128d7a54a04c9b94",
      "transactionIndex": "0x0",
      "blockHash": "0xfa74942840a297eeb6c8d5d103e954ed1f42e887447f5ce5bb2d595e3d1e3142",
      "blockNumber": "0x752b34",
      "gasUsed": "0x61",
      "effectiveGasPrice": "0x2ba7def3000",
      "from": "0x019b00a04e4b38439a7f42964681a7916c3e6364",
      "to": "0x61b7a5e9fd01381390553034cb4090853ed7d504",
      "contractAddress": null
    }
  ],
  "libraries": [],
  "pending": [],
  "returns": {},
  "timestamp": 1715439652,
  "chain": 336,
  "commit": null
}