{
  "transactions": [
    {
      "hash": "0xf68dd4181fa65041f66eb0d55a8d4a95b1f0c593095798f536a0f344655c3ca6",
      "transactionType": "CALL",
      "contractName": null,
      "contractAddress": "0x413b91d571f6bbe2f82702beed2bee765ec085a9",
      "function": "setNumber(uint256)",
      "arguments": [
        "1"
      ],
      "transaction": {
        "from": "0x012f5f98c7e879c78a58bd339d122fbceb5e38d6",
        "to": "0x413b91d571f6bbe2f82702beed2bee765ec085a9",
        "gas": "0xeaab",
        "value": "0x0",
        "input": "0x3fb5c1cb0000000000000000000000000000000000000000000000000000000000000001",
        "nonce": "0x4",
        "chainId": "0x150"
      },
      "additionalContracts": [],
      "isFixedGasLimit": false
    },
    {
      "hash": "0x22ced6889a3d836ce3c132072f5798cdfa690dbdb0aec7e524fa8db9d3d86063",
      "transactionType": "CALL",
      "contractName": null,
      "contractAddress": "0x413b91d571f6bbe2f82702beed2bee765ec085a9",
      "function": "increment()",
      "arguments": [],
      "transaction": {
        "from": "0x012f5f98c7e879c78a58bd339d122fbceb5e38d6",
        "to": "0x413b91d571f6bbe2f82702beed2bee765ec085a9",
        "gas": "0x8dec",
        "value": "0x0",
        "input": "0xd09de08a",
        "nonce": "0x5",
        "chainId": "0x150"
      },
      "additionalContracts": [],
      "isFixedGasLimit": false
    }
  ],
  "receipts": [
    {
      "status": "0x1",
      "cumulativeGasUsed": "0xfd",
      "logs": [],
      "logsBloom": "0x00000000000000000000000000000000000000000000000000000000000000000000000000000000000000000000000000000000000000000000000000000000000000000000000000000000000000000000000000000000000000000000000000000000000000000000000000000000000000000000000000000000000000000000000000000000000000000000000000000000000000000000000000000000000000000000000000000000000000000000000000000000000000000000000000000000000000000000000000000000000000000000000000000000000000000000000000000000000000000000000000000000000000000000000000000000",
      "type": "0x2",
      "transactionHash": "0xf68dd4181fa65041f66eb0d55a8d4a95b1f0c593095798f536a0f344655c3ca6",
      "transactionIndex": "0x0",
      "blockHash": "0x0f3f72fdc725cd949610f33872b59d43cff9035bf091bb4e334570275dbb249e",
      "blockNumber": "0x752aa5",
      "gasUsed": "0xfd",
      "effectiveGasPrice": "0x2ba7def3000",
      "from": "0x012f5f98c7e879c78a58bd339d122fbceb5e38d6",
      "to": "0x413b91d571f6bbe2f82702beed2bee765ec085a9",
      "contractAddress": null
    },
    {
      "status": "0x1",
      "cumulativeGasUsed": "0x61",
      "logs": [],
      "logsBloom": "0x00000000000000000000000000000000000000000000000000000000000000000000000000000000000000000000000000000000000000000000000000000000000000000000000000000000000000000000000000000000000000000000000000000000000000000000000000000000000000000000000000000000000000000000000000000000000000000000000000000000000000000000000000000000000000000000000000000000000000000000000000000000000000000000000000000000000000000000000000000000000000000000000000000000000000000000000000000000000000000000000000000000000000000000000000000000",
      "type": "0x2",
      "transactionHash": "0x22ced6889a3d836ce3c132072f5798cdfa690dbdb0aec7e524fa8db9d3d86063",
      "transactionIndex": "0x0",
      "blockHash": "0xe581d1537d3706378d7acbe7b4d2a07e82449a4ada060b9dc7598008345f49a8",
      "blockNumber": "0x752aa6",
      "gasUsed": "0x61",
      "effectiveGasPrice": "0x2ba7def3000",
      "from": "0x012f5f98c7e879c78a58bd339d122fbceb5e38d6",
      "to": "0x413b91d571f6bbe2f82702beed2bee765ec085a9",
      "contractAddress": null
    }
  ],
  "libraries": [],
  "pending": [],
  "returns": {},
  "timestamp": 1715439513,
  "chain": 336,
  "commit": null
}