{
  "transactions": [
    {
      "hash": "0x12cc84b37fad1534aa2c263ae37b2e0246bb402f7e699fd4e32cb36b90d5edce",
      "transactionType": "CALL",
      "contractName": null,
      "contractAddress": "0x488ab8d80a860160be7a330a13e96dc4d2ddfb9e",
      "function": "setNumber(uint256)",
      "arguments": [
        "1"
      ],
      "transaction": {
        "from": "0x023822eb91725d538071cfe13a3022c7dd52b85f",
        "to": "0x488ab8d80a860160be7a330a13e96dc4d2ddfb9e",
        "gas": "0xeaab",
        "value": "0x0",
        "input": "0x3fb5c1cb0000000000000000000000000000000000000000000000000000000000000001",
        "nonce": "0x1",
        "chainId": "0x150"
      },
      "additionalContracts": [],
      "isFixedGasLimit": false
    },
    {
      "hash": "0x5e2202495af27848cc3f3c59a99aca46961ef98a464e9a7f0aff5c7f8a83d81d",
      "transactionType": "CALL",
      "contractName": null,
      "contractAddress": "0x488ab8d80a860160be7a330a13e96dc4d2ddfb9e",
      "function": "increment()",
      "arguments": [],
      "transaction": {
        "from": "0x023822eb91725d538071cfe13a3022c7dd52b85f",
        "to": "0x488ab8d80a860160be7a330a13e96dc4d2ddfb9e",
        "gas": "0x8dec",
        "value": "0x0",
        "input": "0xd09de08a",
        "nonce": "0x2",
        "chainId": "0x150"
      },
      "additionalContracts": [],
      "isFixedGasLimit": false
    }
  ],
  "receipts": [
    {
      "status": "0x1",
      "cumulativeGasUsed": "0xfd",
      "logs": [],
      "logsBloom": "0x00000000000000000000000000000000000000000000000000000000000000000000000000000000000000000000000000000000000000000000000000000000000000000000000000000000000000000000000000000000000000000000000000000000000000000000000000000000000000000000000000000000000000000000000000000000000000000000000000000000000000000000000000000000000000000000000000000000000000000000000000000000000000000000000000000000000000000000000000000000000000000000000000000000000000000000000000000000000000000000000000000000000000000000000000000000",
      "type": "0x2",
      "transactionHash": "0x12cc84b37fad1534aa2c263ae37b2e0246bb402f7e699fd4e32cb36b90d5edce",
      "transactionIndex": "0x0",
      "blockHash": "0xd2774f84163d2c500b58a17c1de5dd5845893f763fd05055f5e30beb64df904e",
      "blockNumber": "0x752b8d",
      "gasUsed": "0xfd",
      "effectiveGasPrice": "0x2ba7def3000",
      "from": "0x023822eb91725d538071cfe13a3022c7dd52b85f",
      "to": "0x488ab8d80a860160be7a330a13e96dc4d2ddfb9e",
      "contractAddress": null
    },
    {
      "status": "0x1",
      "cumulativeGasUsed": "0x61",
      "logs": [],
      "logsBloom": "0x00000000000000000000000000000000000000000000000000000000000000000000000000000000000000000000000000000000000000000000000000000000000000000000000000000000000000000000000000000000000000000000000000000000000000000000000000000000000000000000000000000000000000000000000000000000000000000000000000000000000000000000000000000000000000000000000000000000000000000000000000000000000000000000000000000000000000000000000000000000000000000000000000000000000000000000000000000000000000000000000000000000000000000000000000000000",
      "type": "0x2",
      "transactionHash": "0x5e2202495af27848cc3f3c59a99aca46961ef98a464e9a7f0aff5c7f8a83d81d",
      "transactionIndex": "0x0",
      "blockHash": "0xbeb24c688e12c0c20143d0ea8b11923eb07a9ec3215b0aabca5fc3b98855a011",
      "blockNumber": "0x752b8e",
      "gasUsed": "0x61",
      "effectiveGasPrice": "0x2ba7def3000",
      "from": "0x023822eb91725d538071cfe13a3022c7dd52b85f",
      "to": "0x488ab8d80a860160be7a330a13e96dc4d2ddfb9e",
      "contractAddress": null
    }
  ],
  "libraries": [],
  "pending": [],
  "returns": {},
  "timestamp": 1715439729,
  "chain": 336,
  "commit": null
}