{
  "transactions": [
    {
      "hash": "0x0d4d60dc9a0142712d4920110f2b533bdf6778cd5b2682627999ecffc8498abb",
      "transactionType": "CALL",
      "contractName": null,
      "contractAddress": "0x5f0056beeaad509c4e10388442b631d8cdc44f70",
      "function": "setNumber(uint256)",
      "arguments": [
        "1"
      ],
      "transaction": {
        "from": "0x015cde53c51239d8861e1643621cfe22dd3aa702",
        "to": "0x5f0056beeaad509c4e10388442b631d8cdc44f70",
        "gas": "0xeaab",
        "value": "0x0",
        "input": "0x3fb5c1cb0000000000000000000000000000000000000000000000000000000000000001",
        "nonce": "0x4",
        "chainId": "0x150"
      },
      "additionalContracts": [],
      "isFixedGasLimit": false
    },
    {
      "hash": "0x3ddafa768eeabf2e9ad3d6d7127582677840254c618eeacb064f95a56c647527",
      "transactionType": "CALL",
      "contractName": null,
      "contractAddress": "0x5f0056beeaad509c4e10388442b631d8cdc44f70",
      "function": "increment()",
      "arguments": [],
      "transaction": {
        "from": "0x015cde53c51239d8861e1643621cfe22dd3aa702",
        "to": "0x5f0056beeaad509c4e10388442b631d8cdc44f70",
        "gas": "0x8dec",
        "value": "0x0",
        "input": "0xd09de08a",
        "nonce": "0x5",
        "chainId": "0x150"
      },
      "additionalContracts": [],
      "isFixedGasLimit": false
    }
  ],
  "receipts": [
    {
      "status": "0x1",
      "cumulativeGasUsed": "0xfd",
      "logs": [],
      "logsBloom": "0x00000000000000000000000000000000000000000000000000000000000000000000000000000000000000000000000000000000000000000000000000000000000000000000000000000000000000000000000000000000000000000000000000000000000000000000000000000000000000000000000000000000000000000000000000000000000000000000000000000000000000000000000000000000000000000000000000000000000000000000000000000000000000000000000000000000000000000000000000000000000000000000000000000000000000000000000000000000000000000000000000000000000000000000000000000000",
      "type": "0x2",
      "transactionHash": "0x0d4d60dc9a0142712d4920110f2b533bdf6778cd5b2682627999ecffc8498abb",
      "transactionIndex": "0x0",
      "blockHash": "0x4e4e7bb42814957b6c846fb9408e979334994e9c22960e353e51bcc2fdb512a8",
      "blockNumber": "0x752ae0",
      "gasUsed": "0xfd",
      "effectiveGasPrice": "0x2ba7def3000",
      "from": "0x015cde53c51239d8861e1643621cfe22dd3aa702",
      "to": "0x5f0056beeaad509c4e10388442b631d8cdc44f70",
      "contractAddress": null
    },
    {
      "status": "0x1",
      "cumulativeGasUsed": "0x61",
      "logs": [],
      "logsBloom": "0x00000000000000000000000000000000000000000000000000000000000000000000000000000000000000000000000000000000000000000000000000000000000000000000000000000000000000000000000000000000000000000000000000000000000000000000000000000000000000000000000000000000000000000000000000000000000000000000000000000000000000000000000000000000000000000000000000000000000000000000000000000000000000000000000000000000000000000000000000000000000000000000000000000000000000000000000000000000000000000000000000000000000000000000000000000000",
      "type": "0x2",
      "transactionHash": "0x3ddafa768eeabf2e9ad3d6d7127582677840254c618eeacb064f95a56c647527",
      "transactionIndex": "0x0",
      "blockHash": "0x8d7affd1f4d849880176481313d9f75b58f633954c65d79cfb3d95d0811c677a",
      "blockNumber": "0x752ae1",
      "gasUsed": "0x61",
      "effectiveGasPrice": "0x2ba7def3000",
      "from": "0x015cde53c51239d8861e1643621cfe22dd3aa702",
      "to": "0x5f0056beeaad509c4e10388442b631d8cdc44f70",
      "contractAddress": null
    }
  ],
  "libraries": [],
  "pending": [],
  "returns": {},
  "timestamp": 1715439574,
  "chain": 336,
  "commit": null
}