{
  "transactions": [
    {
      "hash": "0x355d0fa205f61a6dbf21e9835c9e39436e6b9bf899299a51467f453bf296c4eb",
      "transactionType": "CALL",
      "contractName": null,
      "contractAddress": "0x043baceac1ee7027792f0feb2d6a67a5189ed547",
      "function": "setNumber(uint256)",
      "arguments": [
        "1"
      ],
      "transaction": {
        "from": "0x0029638471becee161def25bdccfa0230ff22bc5",
        "to": "0x043baceac1ee7027792f0feb2d6a67a5189ed547",
        "gas": "0xeaab",
        "value": "0x0",
        "input": "0x3fb5c1cb0000000000000000000000000000000000000000000000000000000000000001",
        "nonce": "0x15",
        "chainId": "0x150"
      },
      "additionalContracts": [],
      "isFixedGasLimit": false
    },
    {
      "hash": "0x5aefa866bd707848c0494e78efe87b2d94b044edc0c59a39c31d97e9710c2445",
      "transactionType": "CALL",
      "contractName": null,
      "contractAddress": "0x043baceac1ee7027792f0feb2d6a67a5189ed547",
      "function": "increment()",
      "arguments": [],
      "transaction": {
        "from": "0x0029638471becee161def25bdccfa0230ff22bc5",
        "to": "0x043baceac1ee7027792f0feb2d6a67a5189ed547",
        "gas": "0x8dec",
        "value": "0x0",
        "input": "0xd09de08a",
        "nonce": "0x16",
        "chainId": "0x150"
      },
      "additionalContracts": [],
      "isFixedGasLimit": false
    }
  ],
  "receipts": [
    {
      "status": "0x1",
      "cumulativeGasUsed": "0xfd",
      "logs": [],
      "logsBloom": "0x00000000000000000000000000000000000000000000000000000000000000000000000000000000000000000000000000000000000000000000000000000000000000000000000000000000000000000000000000000000000000000000000000000000000000000000000000000000000000000000000000000000000000000000000000000000000000000000000000000000000000000000000000000000000000000000000000000000000000000000000000000000000000000000000000000000000000000000000000000000000000000000000000000000000000000000000000000000000000000000000000000000000000000000000000000000",
      "type": "0x2",
      "transactionHash": "0x355d0fa205f61a6dbf21e9835c9e39436e6b9bf899299a51467f453bf296c4eb",
      "transactionIndex": "0x0",
      "blockHash": "0x5cfdce746f755a4d5361285503af39e6403e8da1844086bb9987ef72f0f97b0f",
      "blockNumber": "0x7529a9",
      "gasUsed": "0xfd",
      "effectiveGasPrice": "0x2ba7def3000",
      "from": "0x0029638471becee161def25bdccfa0230ff22bc5",
      "to": "0x043baceac1ee7027792f0feb2d6a67a5189ed547",
      "contractAddress": null
    },
    {
      "status": "0x1",
      "cumulativeGasUsed": "0x61",
      "logs": [],
      "logsBloom": "0x00000000000000000000000000000000000000000000000000000000000000000000000000000000000000000000000000000000000000000000000000000000000000000000000000000000000000000000000000000000000000000000000000000000000000000000000000000000000000000000000000000000000000000000000000000000000000000000000000000000000000000000000000000000000000000000000000000000000000000000000000000000000000000000000000000000000000000000000000000000000000000000000000000000000000000000000000000000000000000000000000000000000000000000000000000000",
      "type": "0x2",
      "transactionHash": "0x5aefa866bd707848c0494e78efe87b2d94b044edc0c59a39c31d97e9710c2445",
      "transactionIndex": "0x0",
      "blockHash": "0x94bed97e4c73a50ffb5f5242da7acd371397547ea0fe4c1309a808901da18bb5",
      "blockNumber": "0x7529ab",
      "gasUsed": "0x61",
      "effectiveGasPrice": "0x2ba7def3000",
      "from": "0x0029638471becee161def25bdccfa0230ff22bc5",
      "to": "0x043baceac1ee7027792f0feb2d6a67a5189ed547",
      "contractAddress": null
    }
  ],
  "libraries": [],
  "pending": [],
  "returns": {},
  "timestamp": 1715439307,
  "chain": 336,
  "commit": null
}