{
  "transactions": [
    {
      "hash": "0xd5660b722ad22998a42a0dc5f208897dfd3ef44b6bf8bed3a925852c5a00c3ce",
      "transactionType": "CALL",
      "contractName": null,
      "contractAddress": "0xd830aa2cdef8ac57facae3f0af71bb2d10f3fc2c",
      "function": "setNumber(uint256)",
      "arguments": [
        "1"
      ],
      "transaction": {
        "from": "0x017274126cc7d7791f2635a77fea2cef884ce36a",
        "to": "0xd830aa2cdef8ac57facae3f0af71bb2d10f3fc2c",
        "gas": "0xeaab",
        "value": "0x0",
        "input": "0x3fb5c1cb0000000000000000000000000000000000000000000000000000000000000001",
        "nonce": "0x4",
        "chainId": "0x150"
      },
      "additionalContracts": [],
      "isFixedGasLimit": false
    },
    {
      "hash": "0x2cbc73e8f2caeb4073c56cfbdb7dd35ad785fe83e7fd74bab03c810c1cf8cc38",
      "transactionType": "CALL",
      "contractName": null,
      "contractAddress": "0xd830aa2cdef8ac57facae3f0af71bb2d10f3fc2c",
      "function": "increment()",
      "arguments": [],
      "transaction": {
        "from": "0x017274126cc7d7791f2635a77fea2cef884ce36a",
        "to": "0xd830aa2cdef8ac57facae3f0af71bb2d10f3fc2c",
        "gas": "0x8dec",
        "value": "0x0",
        "input": "0xd09de08a",
        "nonce": "0x5",
        "chainId": "0x150"
      },
      "additionalContracts": [],
      "isFixedGasLimit": false
    }
  ],
  "receipts": [
    {
      "status": "0x1",
      "cumulativeGasUsed": "0xfd",
      "logs": [],
      "logsBloom": "0x00000000000000000000000000000000000000000000000000000000000000000000000000000000000000000000000000000000000000000000000000000000000000000000000000000000000000000000000000000000000000000000000000000000000000000000000000000000000000000000000000000000000000000000000000000000000000000000000000000000000000000000000000000000000000000000000000000000000000000000000000000000000000000000000000000000000000000000000000000000000000000000000000000000000000000000000000000000000000000000000000000000000000000000000000000000",
      "type": "0x2",
      "transactionHash": "0xd5660b722ad22998a42a0dc5f208897dfd3ef44b6bf8bed3a925852c5a00c3ce",
      "transactionIndex": "0x0",
      "blockHash": "0xe0981a51341c041d795717650a9995874c720e630ce9c2943c649e7a740ba9e0",
      "blockNumber": "0x752b00",
      "gasUsed": "0xfd",
      "effectiveGasPrice": "0x2ba7def3000",
      "from": "0x017274126cc7d7791f2635a77fea2cef884ce36a",
      "to": "0xd830aa2cdef8ac57facae3f0af71bb2d10f3fc2c",
      "contractAddress": null
    },
    {
      "status": "0x1",
      "cumulativeGasUsed": "0x61",
      "logs": [],
      "logsBloom": "0x00000000000000000000000000000000000000000000000000000000000000000000000000000000000000000000000000000000000000000000000000000000000000000000000000000000000000000000000000000000000000000000000000000000000000000000000000000000000000000000000000000000000000000000000000000000000000000000000000000000000000000000000000000000000000000000000000000000000000000000000000000000000000000000000000000000000000000000000000000000000000000000000000000000000000000000000000000000000000000000000000000000000000000000000000000000",
      "type": "0x2",
      "transactionHash": "0x2cbc73e8f2caeb4073c56cfbdb7dd35ad785fe83e7fd74bab03c810c1cf8cc38",
      "transactionIndex": "0x0",
      "blockHash": "0x5bddebb00649265ca0c66626e5fb78068ece593163cfb186339c0beacb26e40d",
      "blockNumber": "0x752b01",
      "gasUsed": "0x61",
      "effectiveGasPrice": "0x2ba7def3000",
      "from": "0x017274126cc7d7791f2635a77fea2cef884ce36a",
      "to": "0xd830aa2cdef8ac57facae3f0af71bb2d10f3fc2c",
      "contractAddress": null
    }
  ],
  "libraries": [],
  "pending": [],
  "returns": {},
  "timestamp": 1715439612,
  "chain": 336,
  "commit": null
}